:020000040000FA
:100000000209D75388CF5389F0438901438E04EF07
:100010006012C28C758CA0758A4CC28DD28C308DCA
:10002000FD1F80EBC28C2285A7131201791201A556
:1000300012016F1201598513A7222202080085A719
:100040001312019E12006B12018212005D12012533
:100050001201891201901201978513A722AF8875AA
:100060008800758DBC758B348F882275A50275D577
:02007000032269
:1000730002013E120027C2A720912D75E240C293D0
:10008300E4FFEFC394FF7480948050030F80F3D296
:10009300933093FDE4FFEFC3940A7480948050037C
:1000A3000F80F3E4F5E280D012003EC291E4F51133
:1000B300F508F509E4F512AF12C3EF9403748094C5
:1000C30080500EAF12740A2FF8A611051105128085
:1000D300E6750D7C120165750D7C12014CE4F51279
:1000E300AF12C3EF940374809480501EAF12740A4E
:1000F3002FF8E6FFAE12740E2EF8E66F60080509BE
:10010300E50970020508051280D6D3E5099400E5D8
:100113000894004004C2918002B2917F321200031E
:100123008092E59154045391FB75953875949E75AF
:10013300933875929E43910442912253C17F43C1E8
:100143008053917FC2C5C200322000FDD200D2018C
:10015300D2C52000FD22E4F5A9E5A954806480708E
:10016300F8222000FDD200C201D2C52243B280E5AD
:10017300B2544060FA22E4F5A753D9BFF5D92275EA
:10018300E34075E104227589204388402253C1FC72
:1001930043C1DD2275E68175A88022E4F5A775D4F5
:0601A300FF2275C91022C5
:10080000C0E0C0D075D000C000C20230C2030208F0
:1008100091E5C054F02480604F24C0601A24E07039
:100820006C850DC253C2FEA201E43342C2C2C5753B
:100830001501751401805C30C120200156D3E514E8
:10084000940374809480500C74092514F8E6F5C262
:100850000514803FD2C4C2008039D2C4D2C5050974
:10086000E509702F0508802BC3E515940374809467
:1008700080740D500B2515F8A6C2D2C10515801342
:100880002515F8A6C2C200C2C1D2C48006D2028019
:1008900002D20230021A53C17F43C180C2C5C2C412
:1008A000C2C1C200C202C2910509E5097002050871
:0908B000C2C0D000D0D0D0E0326B
:0F09D70012003A787FE4F6D8FD75812002007691
:00000001FF
