:020000040000FA
:1000000002091C85A71412009E12006912008212B8
:10001000004D1200221200891200901200978514E0
:10002000A722E59154045391FB75953875949E75FC
:10003000933875929E439104429122020800120067
:1000400003E4F511F508F50912007680FEAF887516
:100050008800758DBC758B348F882253C17F43C156
:100060008053917FC2C5C2003275A50275D50322A7
:1000730002005BE4F5D9D2C575F4F975C2AC2275FB
:10008300E34075E104227589204388402253C1FC73
:1000930043C1DD2275E68175A88022E4F5A775D4F6
:0200A300FF223A
:10080000C0E0C0D075D000C000C20230C2030208F0
:1008100091E5C054F02480604F24C0601A24E07039
:100820006C850DC253C2FEA201E43342C2C2C5753B
:100830001601751501805C30C120200156D3E515E5
:10084000940374809480500C74092515F8E6F5C261
:100850000515803FD2C4C2008039D2C4D2C5050973
:10086000E509702F0508802BC3E516940374809466
:1008700080740D500B2516F8A6C2D2C10516801340
:100880002516F8A6C2C200C2C1D2C48006D2028018
:1008900002D20230021A53C17F43C180C2C5C2C412
:1008A000C2C1C200C202C2910509E5097002050871
:0908B000C2C0D000D0D0D0E0326B
:0C091C00787FE4F6D8FD75812002003ED3
:00000001FF
