:020000040000FA
:10000000020800752938D2C57F645388CF5389F020
:10001000438901438E04EF6012C28C758CA0758AEF
:100020004CC28DD28C308DFD1F80EBC28C22E4F54A
:10003000A9E5A95480648070F8222202003EC0E045
:10004000C0D075D000C006C007C20220C253E5C0B0
:1000500054F02440601124E0704775C27CC2C5751D
:100060000900750800803A30C137AF087E00D3EF31
:100070009401748094805027EF7017E53F453E70DF
:1000800004F5C28016E53F6401453E700E75C2401E
:100090008009EF64014E70038529C205088002D2F1
:1000A000C4C2C0D007D006D0D0D0E0321201B0C256
:1000B000A720922D75E240C293E4FFEFC394FF7432
:1000C00080948050030F80F3D2933093FDE4FFEFD0
:1000D000C3940A7480948050030F80F3E4F5E280A7
:1000E000D0120178C291E4F50CF527F528F521F539
:1000F00022752938752A39752B14752C73752D5670
:10010000752E6C752F3875300175310C120119126E
:1001100001527F3212000A80F9E4F53EF53F1200E9
:100120000375293912000675291412000675295322
:1001300012000675297312000675296C120006124A
:10014000000375290C120006752901D2C57F6402CF
:10015000000AE4F53EF53F752980120006753E0061
:10016000753F01752930120006E4F53EF53F75290B
:100170000FD2C57F6402000A85A70E120207120182
:10018000E41201EB1201C31201971201F21201F9FC
:10019000120200850EA722E59154045391FB759538
:1001A0003875949E75933875929E439104429122BE
:1001B00085A70E1201DB1202131201D112002E8547
:1001C0000EA722AF88758800758DBC758B348F881B
:1001D0002243B280E5B2544060FA22E4F5A753D935
:1001E000BFF5D92275A50275D5032275E34075E1E7
:1001F00004227589204388402253C1FC43C1DD227B
:1002000075E68175A88022E4F5A775D4FF22020A5D
:0702100000000075C9102277
:1008000012003A787FE4F6D8FD75813F02084A026B
:1008100000ACE493A3F8E493A34003F68001F2084C
:10082000DFF48029E493A3F85407240CC8C333C42D
:10083000540F4420C8834004F456800146F6DFE498
:10084000800B010204081020408090020EE47E011B
:100850009360BCA3FF543F30E509541FFEE493A30B
:1008600060010ECF54C025E060A840B8E493A3FA1D
:10087000E493A3F8E493A3C8C582C8CAC583CAF0A9
:0F088000A3C8C582C8CAC583CADFE9DEE780BE48
:00000001FF
