:020000040000FA
:1000000002093E750838D2C57F645388CF5389F002
:10001000438901438E04EF6012C28C758CA0758AEF
:100020004CC28DD28C308DFD1F80EBC28C22E4F54A
:10003000A9E5A95480648070F82222020800E4F542
:100040001CF51D12000375083912000675081412FC
:10005000000675085312000675087312000675082D
:100060006C12000612000375080C120006750801D8
:10007000D2C57F6402000AE4F51CF51D75088012E4
:100080000006751C00751D01750830120006E4F5A8
:100090001CF51D75080FD2C57F6402000A85A71FD5
:1000A00012013A12011712011E1200F61200BC12C0
:1000B000012512012C120133851FA722E59154045A
:1000C0005391FB75953875949E75933875929E4340
:1000D000910442912285A71F12010E1201411201C3
:1000E0000412002E851FA7221200D512009D1200B7
:1000F0003E12007780FEAF88758800758DBC758BC9
:10010000348F882243B280E5B2544060FA22E4F58D
:10011000A753D9BFF5D92275A50275D5072275E376
:100120004075E104227589204388402253C1FC4375
:10013000C1DD2275E68175A88022E4F5A775D4FF9C
:050140002275C9102228
:10080000C0E0C0D075D000C006C00720C250E5C00F
:1008100054F02440600E24E0704475C27CC2C5755B
:100820001E00803A30C137AF1E7E00D3EF940174B2
:100830008094805027EF7017E51D451C7004F5C2A9
:100840008016E51D6401451C700E75C2408009EFDD
:1008500064014E70038508C2051E8002D2C4C2C066
:09086000D007D006D0D0D0E03260
:0F093E0012003A787FE4F6D8FD75811F0200E8B9
:00000001FF
