:020000040000FA
:10000000020873EB9FF5F0EA9E42F0E99D42F0ECA6
:0D0010006480C864809845F02275E34022AA
:1008000012001953D99F75E340C284750800750919
:1008100001AE08AF09EE3395E0FDFC7BC07AE179CB
:10082000E47800C3120003400A0509E50970E205F7
:100830000880DED284750800750901AE08AF09EEA4
:100840003395E0FDFC7BC07AE179E47800C31200C7
:0D0850000340B60509E50970E2050880DEE9
:0C087300787FE4F6D8FD758109020800CA
:00000001FF
