:020000040000FA
:100000000208E185A7081200E91200FB1200FF12A6
:1000100001031201071200CB1200B312006B120190
:100020000B8508A722C2CFB2913222020025E5EF4C
:100030005402700FAFEFEF6408700512082280FEC3
:1000400012000312009D3092FDE4F5EC80F8E5D833
:100050005440FFE5DF5480FE53D8BF53DF7F75DC8B
:100060004875EBFFEF42D8EE42DF22E5C854045357
:10007000C8FB75CDFF75CCFF75CB3875CA9E43C8DC
:100080000442C822E5C8540453C8FB75CDFF75CCA3
:10009000FF75CBCE75CA2843C80442C82285A7087D
:1000A0001200DF12004E12012712002A12012385CE
:1000B00008A72275A930E5A95480648070F82275DC
:1000C000A930E5A95480648070F82243B280E5B27B
:1000D000544060FA2243B280E5B2544060FA22E410
:1000E000F5A743D94075D94022E4F5A753D9BFF508
:1000F000D922E4F5A753D9BFF5D92275C9102275C5
:10010000A5022275E3402275EF062275A82022750C
:10011000C9102275A5022275E3402275EF062275EB
:0B012000A8A02275A8A02275A522222D
:1008220085A7081200F212010F120113120117120A
:10083200011B1200D51200BF12008412011F85088D
:02084200A722EB
:0C08E100787FE4F6D8FD75810802002E37
:00000001FF
